:020000040800F2
:1000000030090020A1010008A9010008AB01000887
:10001000AD010008AF010008B101000800000000B8
:10002000000000000000000000000000B301000814
:10003000B501000800000000B7010008D51D000848
:10004000BB010008BB010008BB010008BB010008A0
:10005000BB010008BB010008BB010008BB01000890
:10006000BB010008BB010008BB010008BB01000880
:10007000BB010008BB010008BB010008BB01000870
:10008000BB010008BB010008BB010008BB01000860
:10009000BB010008BB010008BB010008BB01000850
:1000A000BB010008BB010008BB010008BB01000840
:1000B000BB010008BB010008BB010008BB01000830
:1000C000BB010008BB010008BB010008BB01000820
:1000D000BB010008BB010008791E0008BB01000835
:1000E000BB010008BB010008BB010008BB01000800
:1000F000BB010008BB010008BB010008BB010008F0
:10010000BB010008BB010008BB010008BB010008DF
:10011000BB010008BB010008BB010008BB010008CF
:10012000BB010008BB010008BB010008BB010008BF
:10013000BB010008BB010008BB010008BB010008AF
:10014000BB010008BB010008BB010008BB0100089F
:10015000BB010008BB010008BB010008BB0100088F
:10016000BB010008BB010008BB010008BB0100087F
:10017000BB010008BB010008BB010008BB0100086F
:10018000BB010008BB010008DFF810D000F0C6FC7E
:100190000048004733320008AFF3008030090020E8
:1001A0000648804706480047FEE7FEE7FEE7FEE711
:1001B000FEE7FEE7FEE7FEE7FEE7FEE7111E0008AA
:1001C000890100082DE9F05F0546002092469B4614
:1001D00088460646814640241BE02846414647465D
:1001E000224600F00BFA53465A46C01A914110D3EA
:1001F00011461846224600F0F2F92D1A67EB010865
:100200004F4622460120002100F0E9F917EB0009D2
:100210004E41201EA4F10104DFDC484631462A4647
:100220004346BDE8F09F40EA01039B0703D009E085
:1002300008C9121F08C0042AFAD203E011F8013BD2
:1002400000F8013B521EF9D27047D2B201E000F82B
:10025000012B491EFBD270470022F6E710B513466A
:100260000A4604461946FFF7F0FF204610BD30B598
:1002700005462A460B4612F8010B13F8014B08B14C
:10028000A042F8D01CB1002802D06D1CF1E728462E
:1002900030BD10B5044604E00B7800F8013B03B113
:1002A000491C521EF8D2204610BD421C10F8011BFA
:1002B0000029FBD1801A704710B5002200E0521CC3
:1002C000835C8C5CA34201D1002BF8D1D8B2E1B29F
:1002D000401A10BD30B504460020034600E05B1C08
:1002E000934203D2E05CCD5C401BF8D030BD0000EF
:1002F0000FB400B58DB010A909900B9000914FF08C
:10030000FF300A9000200C900548069005480790A1
:100310006A4609A80F9900F095F90DB05DF814FB35
:10032000610600087F0600082DE9FF5F1D464FF0BB
:10033000FF3BD5E9014691465F464FF00008A969A9
:100340007F1C01988847296A824688470028F6D191
:10035000BAF1FF3F0CD024F4C064002E19DD600612
:1003600014D5BAF12B0F09D0BAF12D0F0ED103E03D
:10037000584604B0BDE8F09F44F48064A9697F1C2E
:1003800001988847761E8246002E02DDBAF1300FB2
:1003900003D0B9F1000F26D032E0A969761E44F4EB
:1003A00000747F1C019888478246002E05DDBAF153
:1003B000780F06D0BAF1580F03D0B9F1000F10D062
:1003C0001EE0B9F1000F02D0B9F1100F18D1A969E0
:1003D000761E24F400747F1C019888478246102002
:1003E00002E0082000E00A20814609E008FB090835
:1003F000A969761E44F400747F1C019888478246E0
:10040000002E05DD4946504600F008F90028EDDAD7
:10041000E96901988847A00502D46FF00100A8E7B8
:10042000E00725D1600613D5600502D5C8F10000AC
:1004300000E0404629680A1D2A600968220501D5A6
:10044000087015E0220701D5088011E008600FE070
:100450002868011D29600068210502D580F8008008
:1004600006E0210702D5A0F8008001E0C0F8008076
:1004700038467EE72DE9FF5FD2E901A74FF000087B
:10048000916999461446DDF838B046460198884788
:10049000054659EA0B0005D009E0A169761C0198D0
:1004A00088470546216A284688470028F5D1681CF8
:1004B00003D05FEACA7005D015E04FF0FF3004B0FA
:1004C000BDE8F09F2068011D2160D0F800800AE09F
:1004D0005FEACA7001D108F8015BA169761C7F1E32
:1004E000019888470546002F1ADD681C18D0B9F11D
:1004F000000F0DD0E81705EBD060421120F01F006F
:1005000059F822102A1A012090400142E0D107E058
:10051000BBF1000FDCD1216A284688470028D7D0DC
:10052000E16901988847BBF1000F07D1002E05DD76
:100530005FEACA7002D1002188F80010A068B842B2
:1005400003DDBBF1000F03D017B16FF00100B6E778
:100550003046B4E700F0004230F000400AD0C10D50
:1005600001F56071C0F3160042EA0151C20840076C
:100570001143704700200146704701F0004330B43A
:1005800021F0004150EA010206D00A0DA2F5607286
:10059000C1F31301002A02DC30BC00207047440F75
:1005A00044EAC104C100E01830BC00EBC25000F0C6
:1005B000C5B830B50B46014600202022012409E0D1
:1005C00021FA02F59D4205D303FA02F5491B04FA0C
:1005D00002F52844151EA2F10102F1DC30BD202AEB
:1005E00004DB203A00FA02F1002070479140C2F18A
:1005F000200320FA03F3194390407047202A04DBBC
:10060000203A21FA02F00021704721FA02F3D0408B
:10061000C2F1200291400843194670473A2800D29F
:10062000303820F02002412A01D3A2F1370088425D
:1006300001D34FF0FF307047026811441378016016
:1006400018467047D1600449516104491162002184
:100650001161114600F08CBA39060008650B0008DC
:10066000426842B1016811F8013B23B1521EC0E952
:100670000012184670470121C160881E7047426809
:100680005AB1C368016843B983688B4205D0491EDB
:10069000521CC0E90012002070474FF0FF30704735
:1006A0000FB4002300B589B00CA900910B996FF02D
:1006B0000042CB601E4B06931E4B07930423CDE9EB
:1006C00001321D4A089202466B46002000F07CFC75
:1006D00009B05DF814FB70B586B006464FF0FF30E8
:1006E0000091CDE90101002015460C4604903246E8
:1006F000694604A8FFF7D4FF02460498211825B1E3
:1007000008B1084600E020462860049800280DD073
:10071000002A02DD0098884208D0081B0094CDE929
:1007200001043246694604A8FFF7BAFF06B070BD5F
:10073000610600087F060008650B00080029A8BFB5
:100740007047401C490008BF20F00100704710B4FA
:10075000B0FA80FC00FA0CF050EA010404BF10BCAF
:10076000704749B1CCF1200421FA04F411FA0CF1DC
:1007700018BF012121430843A3EB0C01CB1D4FEA15
:1007800000614FEA102042BF002010BC704700EB10
:10079000C35010440029A4BF10BC7047401C49003E
:1007A00008BF20F0010010BC70472DE9FE4F8046C5
:1007B00081EA0300C00F0C46009021F0004123F0B5
:1007C0000045B8EB0200A94105D2404621469046BB
:1007D0001C460B46024623F00040104347D0270D2D
:1007E000C7F30A00C3F30A510290401A019040284F
:1007F0006BDAC3F3130040F4801B0098924620B1DB
:100800000023D2EB030A63EB0B0B01985946C0F1AE
:1008100040025046FFF7E3FE06460D465046594655
:10082000019A00F08DF910EB08006141002487EA7D
:10083000115284EAE7731A4340D0009A62B3019AD6
:10084000012A4FEA075215DC001B61EB02014FF051
:10085000004202EA0752CDE90042001C41F5801136
:1008600032462B4600F0DBFC03B0BDE8F08F40467B
:100870002146F9E7001B61EB0201001C41F58013E2
:1008800000185B412018A2F5001747EB030140EA6E
:10089000D570B6196D4111E06D084FEA360645EA8C
:1008A000C0754FEA0752001B61EB0201001C41F5C5
:1008B000801149084FEA30000019514132462B4659
:1008C00003B0BDE8F04F00F09BBC0098012240004F
:1008D0000023D0EB020263EBE073009821464FEA5D
:1008E000E074B8EB000061EB0401E9E783F000433A
:1008F0005BE781F0004158E72DE9FE4F81EA0304F0
:1009000004F0004421F0004100944FF0000B23F06C
:10091000004350EA01045ED052EA03045BD0C3F303
:100920000A54C1F30A552C44A4F2F3340194A0FBF9
:100930000254C1F3130141F48011C3F3130343F4D0
:10094000801301FB024400FB034E840A970A44EA29
:10095000815447EA8357A4FB076802958D0A05FB7B
:1009600007854FEA932C04FB0C542705029D4FEAA0
:10097000065847EA1637B5EB08056EEB070C870EED
:10098000920E47EA811742EA8312A7FB0201B6EBF7
:100990000B0164EB00042B0D43EA0C335E1844EBAF
:1009A0001C50DA465146E7FB0201C5F313044FEA37
:1009B0000B3343EA14534FEA0432019C43EA060323
:1009C000A4F10C040294009CCDE900B400F027FCD3
:1009D00003B0BDE8F08F00200146F9E72DE9F04DA6
:1009E00081EA030404F0004B21F0004514464FF067
:1009F000000A23F0004150EA050220D054EA010227
:100A00001DD0C5F30A570246C5F31303C1F3130003
:100A1000C1F30A5640F4801543F48013A7EB06088F
:100A2000101BD64608F2FD3873EB050002D308F11F
:100A3000010801E092185B41B8F1000F03DA0020D1
:100A40000146BDE8F08D00204FF480110646844633
:100A50000EE0171B73EB050705D3121B63EB0503B1
:100A600006434CEA010C49084FEA300092185B41FA
:100A700050EA0107EDD152EA030012D082EA0400E5
:100A800083EA0501084305D0101BAB4106D20122C1
:100A9000002306E000224FF0004302E06FF0010265
:100AA00053101AEB06004CEB085110EB0A0041EB17
:100AB0000B01BDE8F04D00F0A3BBC1F30A52C1F336
:100AC000130140F2FF3341F480119A4202DA002010
:100AD0000146704740F233439A42A2F2334202DCAD
:100AE0005242FFF78BBDFFF77ABD000030B5041E00
:100AF00071F1000404DB4FF00044404264EB01015B
:100B0000141E73F1000405DB1C464FF000435242F3
:100B100063EB0403994208BF904230BD064C074D79
:100B200006E0E06840F0010394E8070098471034BD
:100B3000AC42F6D3FFF72CFBE8390408083A040866
:100B4000202A06DBCB17203A41FA02F043EAE07391
:100B500006E041FA02F3D040C2F12002914008437E
:100B600019467047C0B24FF4F05100F0A7BB000027
:100B70002DE9F34F8BB04FF0000801F10C000C464B
:100B80004FF0010B46460DF1080A01906269012100
:100B900001989047051E2DD0252D2CD0216A88471D
:100BA000C0B16269012101989047216A88470028F5
:100BB000F7D1411E62690198904700E0761CA16957
:100BC0000B988847216A88470028F7D1E1690B987C
:100BD0008847DBE7A1690B9888470746A84201D1FF
:100BE000761CD3E7E1690B9888477F1C02D1B8F1E6
:100BF000000F6FD047E1002762693D4639460198F2
:100C000090472A2804D16269012101989047012563
:100C1000DFF888926269012101989047A0F13001C4
:100C20000A290AD24F45E5DC07EB870100EB4107B3
:100C3000303FDFD445F01005ECE7E90601D46FF052
:100C400000476C280AD04C2814D0682815D06A2890
:100C50000DD074281CD07A281AD01DE062690121B9
:100C6000019890476C2802D045F0040514E045F047
:100C700002050DE045F020050AE0626901210198B6
:100C80009047682802D045F0080505E045F4006566
:100C90006269012101989047C4E9015765283DD058
:100CA00019DC58287AD00CDC452837D004DC2528FC
:100CB00026D0412831D131E046282FD047282CD1E9
:100CC0002CE05B2877D0612828D063287CD064286A
:100CD00023D15AE0D1E06F2848D008DC66281DD027
:100CE00067281BD0692821D06E2816D127E07028EC
:100CF00045D0732868D0752847D078280DD14DE0AD
:100D0000A1690B988847054625283FF469AFE1693A
:100D10000B9888476D1C3FF46AAFB4E023466A46DF
:100D20006FF001000B9900F04FF99FE045F0400093
:100D30006060A80723464FF0000236D43EE0E80783
:100D40007FF447AF2068011D21600068290501D5A7
:100D500006701BE7290701D5068017E7A90703D509
:100D6000F117C0E9006111E706600FE745F04000A8
:100D70006060A80723464FF0080216D41EE040F634
:100D80000E0125EA0100606016E045F04000606059
:100D9000A80723464FF00A0207D40FE045F04000B1
:100DA0006060A80708D5234610226FF001000B9958
:100DB000AFF300805AE007E0234610226FF00100F5
:100DC0000B99FFF7B1FA51E04FF000094F464B463F
:100DD000632802D05B2807D041E02079C00601D407
:100DE0000120A06001273AE0626901210198904743
:100DF0005E2805D14FF00109626949460198904784
:100E0000216939B900210A46534643F82120491C7B
:100E10000829FADBB0B3216969B9C11700EBD162C7
:100E200053110AEB830122F01F02821A01200B6882
:100E3000904003430B6062690121019890475D284F
:100E4000E8D1B9F1000F09D00020514651F8202017
:100E5000D24341F82020401C0828F7DB02AB224691
:100E600000976FF001000B99FFF704FB00280CDAE4
:100E7000401C08D1BBF1000F05D04FF0FF300DB082
:100E8000BDE8F08FFFE74046F9E7E90701D108F137
:100E9000010806444FF0000B78E60000CCCCCC0CE7
:100EA0002DE9FF4F087883B09946FF2805D0491CEB
:100EB0002D2804D00024002008E000200BE00124AD
:100EC000F9E700EB800003EB4000491C0B78FF2B97
:100ED000F7D104B1404200230293147819461D460D
:100EE0002D2C01D02B2C04D1521C2D2C13D00024DE
:100EF0000294AA461478FF2C0FD00A25A3FB05788C
:100F000001FB05814FF0000C03FB0C11521CE3198F
:100F10004AEB0101EEE70124EAE7814453EA0100CC
:100F200002D019F5C87F06DA03980021C0E9001144
:100F300007B0BDE8F08F0025AE4E2F46DFF8B8822F
:100F4000184600F0CFF9CDE90001B9F1000002DA4E
:100F5000C9F1000400E004460023A74A1AEB030B82
:100F600042EB045A12E0E00707D02A4633463846DF
:100F70004146FFF7C1FC074688462A4633461046DD
:100F80001946FFF7B9FC05460E466410002CEAD15D
:100F9000DDE90001B9F1000F5A46534606DAFFF7C2
:100FA0001DFD3A464346FFF719FD05E0FFF7A4FC97
:100FB0003A464346FFF7A0FC029A0AB181F000418D
:100FC000039AC2E90001B3E72DE9FF4F1F468DB038
:100FD000D7E901464FF0FF382E2045464FF0000973
:100FE0000B90B9696D1C0E988847396A824688470C
:100FF0000028F6D1BAF1FF3F0AD024F4D064002EC5
:1010000011DDBAF12B0F08D0BAF12D0F0BD102E090
:10101000404611B08DE744F48064B9696D1C0E98A8
:1010200088478246761E6946600501D52D2000E07E
:101030002B208DF8000001F1010B0DF1200809E0D3
:10104000B9696D1C0E98884782460F9844F4007465
:10105000761E0560002E02DDBAF1300FF0D00B993C
:101060008A453ED144F0800406E00F99681CA9F13E
:10107000010944F400740860B9696D1C761E0E986D
:10108000884782463028F0D02BE00B998A4505D15D
:10109000200603D444F08004761E18E0504601F088
:1010A000F9F808B30DF11301761E44F400748B4572
:1010B00008D2AAF130000BF8010B200607D5A9F1E0
:1010C000010003E0200602D409F101008146A005D9
:1010D00002D50F99681C0860B9696D1C0E98884785
:1010E0008246002ED1DC53E0002E51DDBAF1650FAF
:1010F00002D0BAF1450F4BD1A00549D5B9696D1C95
:1011000024F44074761E0E9888478246002E0CDD2B
:101110002B2804D0BAF12D0F07D144F48074B9699B
:101120006D1C0E9888478246761EE00501D52D215C
:1011300000E02B2108F8011BCDF82C8021E00DF1F7
:101140002901761E44F4007488450CD2AAF13000BF
:1011500010F0FF0088F8000002D10B99884509D9EA
:1011600008F1010806E0E00501D5244801E042F25B
:101170000F708146B9696D1C0E98884782460F989A
:101180000560002E04DD504601F084F80028D6D119
:10119000F9690E988847FF208BF8000088F8000056
:1011A0000020069007904B466A4608A906A8FFF75C
:1011B00077FEA00502D46FF001002AE714F0240F97
:1011C0000AD0E00714D1DDE906123868031D3B6040
:1011D0000068C0E900120BE0DDE90601FFF7CDF978
:1011E0000146E00704D13868021D3A6000680160DA
:1011F00028460EE7000014400000F03FF1D8FFFF42
:1012000010B5141E73F1000408DA401C41F100010E
:1012100092185B411A4301D120F0010010BD2DE965
:10122000F04D92469B4611B1B1FA81F202E0B0FA5C
:1012300080F220329046FFF7D2F904460F4640EA8A
:101240000A0041EA0B0153465A46084313D011469F
:1012500053EA010019D0C8F140025046FFF7CEF919
:1012600005460E46504659464246FFF7B8F9084330
:1012700005D0012004E020463946BDE8F08D00206D
:10128000054346EAE0762C4337430A986305E40AAF
:10129000A0EB08000022FD0A44EA47540A3002D5B8
:1012A00000200146E9E7010510196941DDE908451B
:1012B00000196941BDE8F04DA2E700007F2801D97F
:1012C000002208E0064A02EB5002C007127800D163
:1012D000120902F00F020120904008407047000000
:1012E000003804080EB540F2334202920022CDE9E4
:1012F00000221346FFF793FF03B000BD1CB5012188
:10130000082000F0B9F900208DF804004FF4804067
:10131000009002208DF805006946024800F0D8F8D8
:101320001CBD0000000C02401CB50121082000F08B
:10133000A3F901208DF804008003009002208DF8AD
:1013400005006946014800F0C3F81CBD000C0240CE
:101350002DE9F34F81B000F09BF84FF48041344801
:1013600000F02DF94FF48041314800F01CF9C8BB62
:1013700000BF4FF480412E4800F015F90028F8D046
:1013800000BF4FF480412A4800F00DF90128F8D041
:1013900000F052F8044600F04FF8054600F04CF813
:1013A000064600F049F8074600F046F800904FF472
:1013B00080411F4800F000F9372001F0F9FB4FF49D
:1013C00080411B4800F0FBF860193044C1190098B7
:1013D000814207D104F0FF0805F0FF0906F0FF0A7B
:1013E00007F0FF0B00EE108AB8EE400A114880EDBE
:1013F000000A00EE109AB8EE400A80ED010A00EEF5
:1014000010AAB8EE400A80ED020A00EE10BAB8EE5B
:10141000400A80ED030A90ED020A019880ED000A6F
:10142000044890ED000A029880ED000ABDE8FE8FA6
:10143000000C02401C05002070B50025002400BFF0
:101440001FE000BF4FF48041104800F0ACF80028C6
:10145000F8D01E2001F0ACFB6006040E4FF4804172
:101460000A4800F0A0F8012801D144F0010400BFAF
:101470004FF48041054800F096F80128F8D0681C28
:10148000C5B2082DDDDB204670BD0000000C024017
:1014900010B5FFF749FF4FF480410C4800F08FF87A
:1014A0001E2001F085FB4FF48041084800F084F8CD
:1014B000142001F05BFB4FF48041044800F07FF8FA
:1014C0001E2001F075FBFFF719FF10BD000C024054
:1014D000F0B50A4600210023002400BF3DE00125AD
:1014E00005FA01F3156805EA03049C4234D1056846
:1014F0004F000326BE40B543056015794E00B54048
:101500000668354305601579012D02D01579022D45
:1015100016D185684F000326BE40B54385605579D6
:101520004E00B540866835438560456801268E408B
:10153000B5434560456896798E40B6B235434560FF
:10154000C5684F000326BE40B543C560D5794E003F
:10155000B540C6683543C560491C1029BFD3F0BDEE
:10156000F0B5002300244D07ED0E02FA05F3CE106E
:1015700000F1200555F826504E07F70E0F26BE4005
:10158000B543CF1000F1200646F82750CE1000F1E9
:10159000200555F8265045EA0304CE1000F1200539
:1015A00045F82640F0BD0246002013690B400BB100
:1015B000012000E0002070470A04826170478161C9
:1015C00070474FF6FF710160002101714171817117
:1015D000C17170470AB1816101E00B0483617047FA
:1015E00070B5002100230F22C4781CB3174C246867
:1015F00004F4E064C4F5E064C4F30721C1F1040419
:10160000E3B20A4144789C40E1B28478144021431B
:101610000C07210E0E4C05786155047804F01F0567
:101620000124AC4005786D11AD0005F1E025C5F849
:10163000004109E0047804F01F050124AC40054D89
:101640000678761145F8264070BD00000CED00E0EC
:1016500000E400E080E100E002490143024A116039
:10166000704700000000FA050CED00E00149086237
:101670007047000000000E4229B1064A126802437A
:10168000044B1A6004E0034A12688243014B1A605B
:10169000704700003038024029B1064A1268024300
:1016A000044B1A6004E0034A12688243014B1A603B
:1016B000704700004038024029B1064A12680243D0
:1016C000044B1A6004E0034A12688243014B1A601B
:1016D0007047000044380240F0B500210022002489
:1016E000022500260223324F3F6807F00C0121B18A
:1016F000042905D0082937D105E02E4F076036E0D0
:101700002D4F076033E02A4F3F1F3F68C7F38056D5
:10171000274F3F1F3F6807F03F036EB1264FB7FBCF
:10172000F3F7DFF88CC0ACF1040CDCF800C0CCF3AC
:10173000881C07FB0CF40CE01E4FB7FBF3F7DFF837
:1017400070C0ACF1040CDCF800C0CCF3881C07FBC3
:101750000CF4174F3F1F3F68C7F301477F1C7D0004
:10176000B4FBF5F7076002E0124F076000BF00BF4F
:101770000F4F3F6807F0F0010909104F7A5C0768C6
:10178000D74047600A4F3F6807F4E051890A0B4F82
:101790007A5C4768D7408760054F3F6807F460412F
:1017A000490B064F7A5C4768D740C760F0BD000020
:1017B000083802400024F40000127A004C00002097
:1017C00010B501460022002300204A11012A02D14F
:1017D0000A4C236808E0022A03D1084C70342368BD
:1017E00002E0064C7434236801F01F020124944087
:1017F0001C400CB1012000E0002010BD0038024068
:101800000021094A11701170012802D0042808D162
:1018100003E00121044A117004E00521024A11701D
:1018200000E000BF00BF7047703802400149086007
:10183000704700003C0E4742002100F44072B2F5B0
:10184000407F08D1094A116821F4F811084A024082
:101850001143064A1160054A68321268C0F30B034F
:101860001A43024B68331A60704700000838024080
:10187000FFFCFF0F014600BF080900EB800042009B
:1018800001F00F001044C0B270470146002204E08E
:10189000501CC2B2A1F10A00C1B20A29F8DA10073D
:1018A00041EA106070470121017081704170002190
:1018B000C170704708B50022009200200021104A34
:1018C000126802F04002CAB9421E0D4B1A6000BFF6
:1018D0000B4A126802F04001009A521C0092009AD2
:1018E000B2F5803F01D00029F2D0054A126802F01B
:1018F00040020AB1012002E0002000E0012008BD02
:101900000C2800400348006820F08000014908606E
:10191000704700000C28004070B506460C460025B4
:101920000E4800680E4900EA0105280CE070C5F376
:101930000420607005F03F00A070C5F342302070B5
:101940005EB9E078FFF796FFE0706078FFF792FFEE
:101950006070A078FFF78EFFA07070BD0428004073
:101960003FFFFF0070B506460C4600250F48006893
:101970000F4900EA0105C5F305402070C5F30620B4
:10198000607005F07F00A07005F48000000CE0702E
:101990005EB92078FFF76EFF20706078FFF76AFF6E
:1019A0006070A078FFF766FFA07070BD002800404F
:1019B0007F7F7F0030B504460025CA2015490860A6
:1019C00053200860FFF776FF00B91DE011481C386E
:1019D000006820F040000F491C3908600846006884
:1019E000216808430B491C3908600A491439A0686A
:1019F000086008460068A18840EA0140054914399A
:101A00000860FFF77FFF0125FF2002490860284694
:101A100030BD0000242800402DE9F04105460C4669
:101A2000002600274DB9607800F01000102804D17E
:101A3000607820F010000A30607005B908E0607826
:101A4000FFF718FF0646A078FFF714FF064600BF11
:101A500055B1E0780004617840EA0120A17808439C
:101A6000217840EA413611E0E078FFF70EFF4FEAB7
:101A700000486078FFF709FF48EA0028A078FFF7E0
:101A800004FF48EA0008207848EA4036CA20124994
:101A9000086053200860FFF70DFF08B9002714E025
:101AA0000E4830400C4920390860FFF72BFF0A48E8
:101AB0001C38006800F0200030B900F0A3F808B925
:101AC000002702E0012700E00127FF20024908600B
:101AD0003846BDE8F0810000242800403FFFFF00A9
:101AE0002DE9F04105460C46002600274DB92E4849
:101AF000006800F0400000B102E00020E07000BF8C
:101B00000DE02948006800F0400020B12078FFF780
:101B1000B1FE064602E00020E07000BF00BF55B1F4
:101B200020780004617840EA0120A1780843E17838
:101B300040EA014611E02078FFF7A7FE4FEA00488F
:101B40006078FFF7A2FE48EA0028A078FFF79DFE24
:101B500048EA0008E07848EA0046CA2012491C31E9
:101B6000086053200860FFF7A5FE08B9002713E0BE
:101B70000E4830400C4908390860FFF7C3FE0A4898
:101B8000006800F0200030B900F03CF808B90027E8
:101B900002E0012700E00127FF2003491C31086013
:101BA0003846BDE8F0810000082800407F7F7F00B4
:101BB000002101607F214160FF21816070470000AA
:101BC00010B50A4600210B4B1B6840F6080423EAB7
:101BD00004011AB140F40063194300E00143CA2331
:101BE000044C1C34236053232360024B1960FF23F1
:101BF000236010BD082800400021C17001704170B1
:101C00008170704708B50022009200200021CA228E
:101C1000134B1A6053221A60114A183A126822F0C4
:101C2000A0020F4B183B1A6000BF0D4A183A126809
:101C300002F02001009A521C0092009AB2F5003F77
:101C400001D00029F1D0064A183A126802F02002A9
:101C50000AB1012000E00020FF22014B1A6008BDFC
:101C60002428004021B1028842F04002028004E0B2
:101C700002884FF6BF731A40028070470246002068
:101C800013890B400BB1012000E0002070478181D7
:101C9000704710B50022028802F441520B884C882C
:101CA00023438C882343CC8823430C8923434C89CA
:101CB00023438C892343CC8923431A430280838B9B
:101CC0004FF2FF74234083830B8A038210BD0021EF
:101CD000018041808180C180018141818181C181F8
:101CE00007210182704700000CB500200190009090
:101CF0003448006840F480303249086000BF314801
:101D0000006800F4003000900198401C0190009899
:101D100018B90198B0F5A04FF1D12A48006800F435
:101D2000003010B10120009001E0002000900098E8
:101D3000012846D123484030006840F080502149B6
:101D4000403108602048006840F440401E49086067
:101D50001C48083000681B490831086008460068C4
:101D600040F4004008600846006840F4A050086055
:101D70001648091F0860081F006840F08070091F9E
:101D8000086000BF0F48006800F000700028F9D01C
:101D900040F205700E4908600A480830006820F0DB
:101DA00003000849083108600846006840F0020056
:101DB000086000BF03480830006800F00C000828E5
:101DC000F8D10CBD003802400070004008544007B4
:101DD000003C024010B50B4800684FF47A71B0FB2C
:101DE000F1F0094B1A685B68801843F10001064A5C
:101DF000106051600548006810B1044800688047D1
:101E000010BD000038000020280000203000002015
:101E100010B51548006840F4700013490860134875
:101E2000006840F001001149086000200F490831A6
:101E300008600E4800680E4908400C4908600D48CB
:101E4000091D0860081F006820F48020091F086031
:101E5000002006490C310860FFF746FF4FF0006094
:101E600001498039086010BD88ED00E0003802406B
:101E7000FFFFF6FE1030002410B5002420210C488E
:101E800000F02FF898B10A4800F0C8F8C4B2202139
:101E9000074800F011F80748006820B120460549BE
:101EA0000968884703E00021014800F0BCF810BD34
:101EB000004400403400002001F40072B2F5007FBD
:101EC00000D100BFCA430280704721B1828942F429
:101ED0000052828104E082894DF6FF731A408281AC
:101EE000704702460020B1F5007F00D100BF138883
:101EF0000B400BB1012000E000207047F0B5034615
:101F0000002400260025002040F66A17B94200D1BF
:101F100000BF1846C1F3421401F01F06012707FA5B
:101F200006F5012C01D10C3004E0022C01D1103057
:101F300000E014301AB107682F43076002E0076819
:101F4000AF430760F0BD00002DE9FF4705460E4690
:101F50000024A14600BFA046B08900B100BF2C8A72
:101F600024F44054F08804432C82AC8941F20C6084
:101F70008443B08831890843718908430443AC81A4
:101F8000AC8A24F44074B0890443AC826846FFF7FD
:101F9000A3FB2048854202D01F48854202D1DDF8CC
:101FA0000C9001E0DDF80890A88900F4004040B1F1
:101FB00009EBC90000EB091031684900B0FBF1F7EB
:101FC00007E009EBC90000EB091031688900B0FB9C
:101FD000F1F76420B7FBF0F004012009642101FB54
:101FE0001078A88900F4004040B1322000EBC8000E
:101FF000B0FBF1F000F00700044308E0322000EBF2
:1020000008106421B0FBF1F000F00F0004432C81B4
:10201000BDE8FF8700100140001401400146888898
:10202000C0F308007047C1F30802828070474FF484
:102030001651016000218180C18001810C21418104
:1020400000218181704700000FB4054B10B503A932
:10205000044A029800F026F910BC5DF814FB000059
:10206000393100085C0000200FB47CB50C0009ADCC
:1020700001D0611E00E00021CDE90001064B6A4657
:102080002946089800F00EF9002C02D0009A002191
:1020900011707CBC5DF814FBAB2900080000000047
:1020A00030B583B0044600F017F89FED090B0546E4
:1020B0008DED000B002221466846FEF70CFB2846FA
:1020C00000F020F89DED000B03B030BD00000000D3
:1020D0000000000000000000014800687047000098
:1020E0006000002002E008C8121F08C1002AFAD1CF
:1020F00070477047002001E001C1121F002AFBD188
:10210000704700000149086070470000600000202F
:102110002DE9FF5F82B00021DDE90430020DDDF81A
:1021200040B0034318D044F61050A2F2FF324243AD
:102130001514119801281FD0A5EB0B00401C5FEA75
:10214000000A4FF000064E4FDFF83891B046504677
:1021500015D5CAF1000413E0119801244AA30128FF
:1021600001D16FEA0B010298119AC0E90031C0E970
:10217000024206B0BDE8F09FCBF10000DFE7044665
:102180000021404A491842EB0450CDE9001012E00A
:10219000E00707D032463B4640464946FEF7ACFBD7
:1021A0008046894632463B4610461946FEF7A4FB58
:1021B00006460F466410002CEAD1DDE90401DDE992
:1021C0000023BAF1000F06DAFEF796FB42464B46B3
:1021D000FEF792FB05E0FEF701FC42464B46FEF798
:1021E000FDFB04460E460022284BFEF77FFC03D879
:1021F0004FF0FF30014607E00022254B20463146D4
:10220000FEF7D3FAFEF759FC102409E0002C0ADB94
:102210000A220023FDF7D6FF039B30321A55641EB5
:1022200050EA0102F2D1641C039AC4F11103144470
:10223000119A012A03D0012208430DD10AE0084374
:1022400004D000204FF0110B119072E7A3EB0B05A7
:102250006D1E0DE05B4504DD4FF0000205F1010548
:1022600004E003DA4FF00002A5F10105002AECD0EA
:1022700002981199C0E90231C0E9004579E70000F0
:10228000000014400000F03F300000000000F04368
:102290000000E03F30380A2801D2012070470020BA
:1022A000704700002DE9FF4F95B09A4688460646D4
:1022B0000025EEE1252877D100242746F94A01219F
:1022C000039400E0044316F8013F203B01FA03F0B9
:1022D0001042F7D130782A2811D06FF02F033078D0
:1022E000A0F13002092A16D8039A44F0020402EB46
:1022F000820203EB42021044761C0390EFE758F889
:10230000042B0392002A03DA504244F40054039051
:1023100044F00204761C30782E2816D116F8010FEE
:1023200044F004042A280DD06FF02F023078A0F179
:102330003003092B09D807EB870302EB4303C718C7
:10234000761CF3E758F8047B761C30786C280FD0A5
:1023500006DC4C2817D068280DD06A2814D104E078
:10236000742810D07A280FD10DE044F400140AE04C
:1023700044F4801401E044F440147278824202D1A3
:1023800004F58014761C761C307866280BD013DC9C
:10239000582877D009DC002875D04528F6D0462883
:1023A000F4D047281AD193E118E0632835D0642887
:1023B00079D0652812D18BE1702873D008DC6728AA
:1023C000F1D069286FD06E280DD06F2806D1ACE00F
:1023D00073282CD0752874D0782853D0524617997A
:1023E00090476D1C54E1C4F30250022809D0032821
:1023F0000DD0D8F8001004280DD00D6008F10408A5
:1024000046E1D8F80010EA17C1E90052F6E7D8F81B
:1024100000100D80F2E70D70F0E718F8041B8DF83E
:10242000001000208DF80100EB46012003E058F871
:1024300004BB4FF0FF3061074FF0000102D40DE004
:1024400009F101018946B9420FDA8145F8DB1BF831
:1024500009100029F4D108E009F1010189468142FF
:10246000FADB1BF809100029F6D103985346A0EBBC
:10247000090721463846179A00F080FA284400EBF5
:10248000090507E044E008E10DE01BF8010B5246A6
:1024900017999047B9F10109F7D2534621463846BA
:1024A000179AF2E039E00A21C4F302524FF0000B10
:1024B0000091022A06D058F8040BC117032A09D04C
:1024C0000AE023E008F1070020F00702F2E8020129
:1024D000904605E000B2C117042A01D140B2C117ED
:1024E000002906DA0A460021404261EB02012D2252
:1024F00002E0220504D52B228DF80420012203E0FE
:10250000E20701D02022F7E7914657E00A2100E0D8
:1025100010214FF0000B00910BE010214FF0000B49
:1025200044F004040827009103E008204FF0000B5A
:102530000090C4F30252022A05D058F8040B00217F
:10254000032A08D008E008F1070020F00702F2E8AB
:102550000201904603E080B2042A00D1C0B24FF0DD
:10256000000922072AD53278702A07D0DDF800C08A
:102570008CF0100C5CEA0B0C05D00EE040228DF8BC
:102580000420012208E050EA010306D030238DF830
:1025900004308DF8052002229146009B83F0080349
:1025A00053EA0B030AD150EA010201D1620705D5B3
:1025B00030228DF804204FF001097F1E3278582A0E
:1025C00004D039A20C920CAA02920BE03BA2F9E7CC
:1025D0005B46009AFDF7F6FD0C9B9B5C029A521E2F
:1025E0000292137050EA0102F2D1029804A9081A6B
:1025F00000F1200B600702D524F4803400E00127AD
:102600005F4502DDA7EB0B0000E0002000EB0B01B3
:10261000009003984944401A0390E00306D45346BF
:102620002146179A039800F0A9F90544002706E00F
:1026300001A85246C05D179990476D1C7F1C4F45FD
:10264000F6DBE0030CD553462146179A039800F0B9
:1026500095F9054404E030205246179990476D1CC7
:102660000099481E00900029F5DC08E002980299C4
:1026700052460078491C0291179990476D1CBBF196
:102680000001ABF1010BF1DC5BE100F065F9054401
:10269000761C307800287FF40DAE19B02846BDE8CE
:1026A000F08F0000092801003031323334353637DD
:1026B000383961626364656600000000303132338E
:1026C000343536373839414243444546000000002E
:1026D000600700D4062708F1070020F00700F0E8A3
:1026E0000223804603F0004C5FEA0C0001D097A063
:1026F00009E0200501D596A005E0E00701D095A0EE
:1027000001E0AFF24C001390307823F000436528CD
:102710000CD006DC452809D046281DD047287FD19B
:102720003BE0662818D067287AD136E00021112FC7
:1027300001DB112000E0781CCDE9000104A90CA800
:10274000FFF7E6FCDDE90D010C9A4FF0000B07F1F5
:102750000109109200914EE04FF000400097CDE942
:10276000011004A90CA8FFF7D3FCDDE90D020C9BB6
:102770000F994FF0000B91461093009211B9791CFC
:1027800000EB0109B7EB090003D4C0F1FF3B07F1EF
:102790000109A9EB0700019042E0012F00DA0127AF
:1027A0000021112F01DD112000E03846CDE90001A4
:1027B00004A90CA8FFF7ACFCDDE90D010C9A00910F
:1027C0004FF0000BB946109221070FD4009A4A45EA
:1027D00003DA914601E0A9F10109B9F1010F05DD24
:1027E000109AA9F10101515C3029F4D0B84202DA03
:1027F00010F1040F03DA0121CDE9011010E00028E7
:1028000003DC8344A9EB000102E0411C494500DDE3
:102810008946A0EB0B00401C01904FF00040029055
:10282000200705D40198484502DB4FF0FF300190A6
:1028300000208DF84B0002980DF14B07B0F1004FCE
:1028400025D002200C902B200D90029800280CDA45
:10285000404202902D200D9007E00A210298FDF7DA
:10286000A8FE3031029007F8011D0C99481E0C900B
:102870000029F2DC02980028EFD1791E0D9808702B
:10288000307800F0200040F0450007F8020D11A854
:10289000C01BC01D02901398007800B1012000EB0E
:1028A0000901019801EBE071029801440398401A74
:1028B000401E0390E00306D453462146179A03981E
:1028C00000F05CF805441398007818B15246179947
:1028D00090476D1CE00323D553462146179A039871
:1028E00000F04CF805441BE0BBF1000F07DB00983B
:1028F000584504DD1098179910F80B0001E017995E
:1029000030205246904701980BF1010B401E05F113
:102910000105019004D12E205246179990476D1C55
:10292000B9F10001A9F10109DEDC05E017F8010B9E
:102930005246179990476D1C0299481E0290002933
:10294000F4DC53462146179A03989EE62D000000BA
:102950002B000000200000002DE9F0410446002576
:102960001E461746880404D405E039462020B047A7
:102970006D1C641EF9D52846BDE8F0812DE9F041B3
:10298000044600251E469046C80301D5302700E0C6
:102990002027880404D505E041463846B0476D1C21
:1029A000641EF9D52846BDE8F0814A68002A06D0A1
:1029B0000A68531C0B6010704868401E48607047DE
:1029C00070B502460B8803EBD3767610F01DC61760
:1029D00000EB5676F5100888684384B2886880B1A9
:1029E0008B6800BF1878904205D1D1E901069E1B83
:1029F00006FB040070BD581C034600780028F1D186
:102A000005E0A2F120004B6800FB0430F2E7002053
:102A1000F0E710B501211020FEF74EFE0121480419
:102A2000FEF73AFE01218803FEF736FE0121084633
:102A3000FEF722FE01210220FEF71EFE012188057D
:102A4000FEF72AFE01210807FEF726FE10BD000052
:102A500010B500F043F901F0B3FA00F025F805A233
:102A600007A10AA0FFF7F0FA01F03DF900F000FC21
:102A700010BD000031363A30383A343000000000E2
:102A80004665622032352032303236005B5359536E
:102A90005D204275696C642044617465A3BA257336
:102AA0002025730D0A00000000B587B003A8FFF7CA
:102AB000BEFA4FF4E13003900020ADF81000ADF8FD
:102AC0001200ADF81400ADF818000C20ADF8160097
:102AD000072202212348FEF743FD07220321214854
:102AE000FEF73EFD01A8FEF76CFD00208DF80A0000
:102AF00002208DF808000420019003208DF80900C1
:102B000001A91848FEF7E4FC01208DF80B0008200D
:102B1000019001A91348FEF7DBFC03A91248FFF757
:102B200013FA012240F225510F48FFF7E7F901217E
:102B30000D48FFF7CAF9002000904FF44070FEF7EF
:102B40008BFD01208DF8030005208DF80100002089
:102B50008DF8020026208DF800006846FEF740FD43
:102B600007B000BD00000240004400402DE9F041E4
:102B7000044600F059F80746884600BF0B48006835
:102B8000A4FB005001464FF47A7200232846FDF75B
:102B900019FB05460E4600F047F8C01B61EB080123
:102BA000281A8E41EAD2BDE8F081000038000020EA
:102BB0002DE9F047044600F037F805460E4600BF01
:102BC0000E480068A4FB007001464FF47A7200239F
:102BD0003846FDF7F7FA81464FF47A720023FDF785
:102BE000F1FA0746884600F01FF8401B61EB06012A
:102BF000381A78EB0108E3D2BDE8F08738000020EE
:102C000070B5074800230749026808684968FDF75E
:102C1000D9FA04464FF47A720023FDF7D3FA70BD57
:102C20003800002028000020F0B500BF00BF00BF22
:102C30000C4C226863684FF0E02464694FF0E02593
:102C4000AD69651B074F3E687F68A81947F1000111
:102C5000044C2568666882EA050483EA06052C436D
:102C6000E6D1F0BD280000201448006820B11348C8
:102C70000068401E114908601148006820B11048E2
:102C80000068401E0E4908600E48006820B10D48DB
:102C90000068401E0B4908600B48006820B10A48D4
:102CA0000068401E084908600848006820B10748CD
:102CB0000068401E054908607047000000000020C1
:102CC00004000020080000200C000020100000205C
:102CD0000149086070470000300000200648006885
:102CE0004FF47A71B0FBF1F04FF0E0214861002021
:102CF0008861072008617047380000202DE9FC41F9
:102D000004460027002040F23F13EF2201460090C6
:102D100001F0F2F8114A2521282001F075FB002668
:102D20002046FDF7C2FA0E4909884843C0F347051B
:102D3000F02D05DAC5F1F00000EBD071C1F34F06BC
:102D4000074800214EF612432246CDE90010FE212D
:102D5000304601F01DFCBDE8FC8100006CA40208B7
:102D600018690008F0B5C1B005460E46174605B112
:102D700016B9002041B0F0BD2B460CA24FF4807173
:102D800001A80096FFF770F904463FB1C4F58071C1
:102D900001AA10193B460AA2FFF766F940F6B832BD
:102DA000002301A800F0B2F9E4E7000041542B43EE
:102DB000574A41503D222573222C222573220000C0
:102DC0002C22257322000000004870471C010020BF
:102DD00070B504464FF47A72002313A000F096F900
:102DE00008B9002070BDFFF7EFFF0546214600F04F
:102DF000F5FD08B90020F5E794F85C00012811D131
:102E000040F6B83200230BA000F080F908B900208A
:102E1000E8E7FFF7D9FF0546214600F0F3FE08B9C1
:102E20000020DFE70120DDE741542B435753544195
:102E300054453F0041542B43574A41503F00000046
:102E400030B5C1B00446234609A24FF4807101A8F1
:102E5000FFF70AF941F28832002301A800F056F981
:102E600005461DB1FFF7B0FF41B030BD0020FBE7C4
:102E700041542B48545450434C49454E543D322CF8
:102E8000302C222573222C2C2C32000010B500F09F
:102E90005DF8642200230FA000F038F964220023BB
:102EA0000CA000F033F908B9002010BD4FF47A727D
:102EB000002309A000F02AF908B90020F5E741F243
:102EC0008830002100F006F908B90020EDE7012064
:102ED000EBE700004154000041542B524553544F3E
:102EE0005245000070B504464FF47A72002308A0E2
:102EF00000F00CF908B9002070BDFFF765FF05462A
:102F0000214600F01FFD08B90020F5E70120F3E796
:102F100041542B434950534E545054494D453F0062
:102F200010B54FF47A72002303A000F0EFF808B94F
:102F3000002010BD0120FCE741542B434950534E63
:102F400054504346473D312C3800000000B587B04F
:102F500003A8FFF76CF84FF4E13003900020ADF8C0
:102F60001000ADF81200ADF81400ADF818000C20F8
:102F7000ADF81600072209211A48FEF7F1FA0722D8
:102F80000A211848FEF7ECFA01A8FEF71AFB002008
:102F90008DF80A0001208DF80B0002208DF8080042
:102FA0000002019003208DF8090001A90D48FEF7E9
:102FB0008FFA01208DF80B008002019001A90948C9
:102FC000FEF786FA03A90848FEF7BEFF012240F289
:102FD00025510548FEF792FF01210348FEF775FFD2
:102FE00007B000BD00000240001001402DE9F0478D
:102FF00005460E46DFF87CA000244FF48061504661
:10300000FDF72AF9FFF7FCFD074688462BE00AE0AA
:10301000FFF7F6FDC01B61EB0801401BB14102D375
:103020000020BDE8F08720211348FEF75AFF002852
:10303000EED01148FEF7F2FFC2B22046611C8CB2FE
:103040000C490A54601E085C0A280CD1504600F056
:10305000CDFB8146B9F1000F01D04846E1E70548B4
:1030600000EB040A00BF40F2FF308442CFD30020BF
:10307000D7E700001C0100200010014010B50446F5
:103080000BE000BF80211248FEF72BFF0028F9D08B
:1030900014F8011B0E48FEF7C6FF207808B1002C7B
:1030A000EFD100BF80210A48FEF71BFF0028F9D0AE
:1030B0000D210748FEF7B7FF00BF80210448FEF747
:1030C00010FF0028F9D00A210148FEF7ACFF10BD1F
:1030D0000010014070B504460D4620462946FFF712
:1030E00085FF042801D1012070BD0020FCE700000D
:1030F00010B54FF47A72002301A000F007F810BD5C
:1031000041542B43574D4F44453D31002DE9F0418B
:10311000064614461D4601F04BFB3046FFF7AEFF56
:1031200020462946FFF762FF0746012F01D1BDE87F
:10313000F0810020FBE7000070B504460D468021B9
:103140000748FEF7B9FEE1B20548FEF76CFF00BF85
:1031500080210348FEF7C5FE0028F9D0204670BD47
:103160000044004010B50446F02C02DAB1F5A07F0F
:1031700001DB002010BDF02A02DAB3F5A07F01DBED
:103180000020F7E7944201DC994201DD0020F1E7DD
:103190000120EFE71CB51E48006800B11CBD40F6D9
:1031A000B8301B4908609FED1B0A8DED010A9FEDA9
:1031B000190A8DED000A694601A8FEF7C9F89DEDD0
:1031C000010A1548D0ED000AB4EE600AF1EE10FADB
:1031D0000AD19DED000A1148D0ED000AB4EE600A54
:1031E000F1EE10FA00D1D9E79DED010A0A4880ED11
:1031F000000A9DED000A094880ED000A9DED010AD4
:1032000000F0B0F99DED000A00F070F900BFC5E7CD
:103210000C000020000000001C0000202000002006
:103220000146A12903DBF72901DC012070470020BA
:10323000FCE7FFF7EEFBFFF70BFC01F0E3FA01F010
:103240002BFB01F0AFFB01F09BFC00F019F801E053
:1032500000F001F8FCE710B501F0DCF901F0FAFB31
:1032600001F078FAFFF796FF00F0F6FA10BD0000C3
:1032700010B50248FFF72CFD10BD0000692C0008B6
:103280001CB50024002040F23F13EF2201460090BD
:1032900000F032FE00BF4FF6DF709A23E0220F21CC
:1032A0000090084600F028FE474A1421172001F03C
:1032B000ABF846A000F07CFA46484FF6DF710023D9
:1032C00045A2CDE900102521192001F061F94448FB
:1032D0004FF6DF71002343A2CDE900106021CF201B
:1032E00001F056F940484FF6DF7148F671433FA2AE
:1032F000CDE900107921232001F04AF900BF00BF79
:1033000048F6DD604FF498737222A52100900F20DB
:1033100000F0F2FD344848F6DD61002338A2CDE923
:103320000010AA21132001F033F9384848F6DD6176
:10333000002337A2CDE90010BF21532001F028F966
:10334000324848F6DD61002332A2CDE900104FF487
:1033500083715B2001F01CF99FED2F0A00F002F948
:103360009FED2D0A00F0C2F800BF00BF4FF62940C4
:103370004FF49873E022A52100907D2000F0BCFD61
:10338000264AEF218B2001F03FF8002000F066F97B
:1033900015484FF62941002321A2CDE90010AA21AA
:1033A0007F2001F0F5F819484FF62941002318A2B3
:1033B000CDE90010BE21C02001F0EAF89FED160A09
:1033C00000F00EF900BF1CBD74DC03087669766F4F
:1033D0000000000054B800082D2D3A2D2D000000EB
:1033E000405300082D2D0000186900082D2D2D2DAB
:1033F0002F2D2D2F2D2D20D0C7C6DA2D0000000037
:10340000CAD2C4DABBB7BEB30000000018990008E6
:10341000A1E60000250000000000C8C2ECD70308A8
:10342000C2C0C1BA0000000010B588B00446142123
:1034300003A8FCF711FFE079012801D11CA21EE0CE
:10344000E079022801D11BA219E0E079032801D11B
:1034500019A214E0E079042801D118A20FE0E07964
:10346000052801D116A20AE0E079062801D115A2AB
:1034700005E0E079072801D113A200E013A2E0786B
:10348000A178CDE901020091238811A2122103A89D
:10349000FEF7EAFD14484FF6DF7148F6714303AAC0
:1034A000CDE900107921232001F072F808B010BD99
:1034B000D2BB0000B6FE0000C8FD0000CBC4000077
:1034C000CEE50000C1F90000CCEC00002D000000AA
:1034D000253034752F253032752F2530327520D0A8
:1034E000C7C6DA25730000001869000800B52DED85
:1034F000048B83B0B0EE408A154800680290B5EEA8
:10350000C08AF1EE10FA13DB9FED120AB4EEC08A06
:10351000F1EE10FA0CD818EE100AFDF71BF841EC8A
:10352000190B8DED009B0CA2042102A8FEF79CFD57
:103530000B4848F6DD61002302AACDE90010EF2117
:10354000192001F025F803B0BDEC048B00BD00008C
:10355000CC3704080000C84225322E306600000037
:1035600064C8000800B52DED048B83B0B0EE408A2E
:10357000164800680290BAEE040AB4EEC08AF1EE72
:1035800010FA13DB9FED120AB4EEC08AF1EE10FAC6
:103590000CD818EE100AFCF7DDFF41EC190B8DED8D
:1035A000009B0CA2042102A8FEF75EFD0B4848F622
:1035B000DD61002302AACDE90010C0211E2000F029
:1035C000E7FF03B0BDEC048B00BD0000C837040862
:1035D0000000C84225322E3066000000F8A4000822
:1035E00000B52DED048B83B0B0EE408A164800681C
:1035F0000290BAEE040AB4EEC08AF1EE10FA13DBC0
:103600009FED120AB4EEC08AF1EE10FA0CD818EE53
:10361000100AFCF79FFF41EC190B8DED009B0CA2EB
:10362000042102A8FEF720FD0B484FF62941002394
:1036300002AACDE90010BD218C2000F0A9FF03B043
:10364000BDEC048B00BD0000DC3704080000C8425C
:1036500025322E3066000000F8A4000870B504463C
:103660001CB1022C01D0262C01D1224D3CE0012CB2
:1036700001D0032C01D1204D36E0042C01D0092CBF
:1036800001D11E4D30E0052C05D0062C03D0072CAF
:1036900001D0082C01D11A4D26E00A2C0DD00D2C9A
:1036A0000BD00E2C09D00F2C07D0102C05D0112CCC
:1036B00003D0122C01D0132C01D1124D14E00B2C8D
:1036C00001D00C2C01D1104D0EE0142C09D0152C7A
:1036D00007D0162C05D0172C03D0182C01D0192C8C
:1036E00001D10A4D00E00A4D2A46F021A62000F043
:1036F0008BFE70BD84CF0308140A040844F303084A
:10370000E4A10308B4370408B4B80308E4200408AB
:103710003CDF000830B585B004461D4903C9CDE93A
:103720000301A07900EBD0714910A0EB410109B968
:103730003A2100E020210D466079CDE9005023793F
:1037400014A2062103A8FEF78FFC15484FF6DF717F
:10375000002303AACDE900102521192000F018FF4D
:103760000B48083000680290A3790EA2032102A83A
:10377000FEF77AFC0D484FF6DF71002302AACDE96F
:1037800000106021CF2000F003FF05B030BD000025
:10379000BC370408253032752563253032750000AA
:1037A00054B800082530327500000000405300086E
:1037B00010B588B00446234609A2152102A8FEF7D9
:1037C00053FC09484FF6DF7148F6714302AACDE970
:1037D00000101721322000F0DBFE08B010BD000001
:1037E00025323073000000004053000870B50546D4
:1037F00000240DE0084800EBC40041682846FCF7AF
:1038000036FD18B1044810F8340070BD601CC4B215
:10381000042CEFD30020F8E7E037040830B58DB072
:10382000054630220B4901A8FCF7FDFC00240CE002
:1038300001A850F824102846FCF73EFD18B9601C7A
:10384000C0B20DB030BD601CC4B20C2CF0DB002047
:10385000F7E70000044D000810B52DED028B98B07D
:103860002348006818B118B0BDEC028B10BD4EF6AD
:1038700060201F490860582102A8FCF7EDFC1D4894
:10388000FFF7DEFA04461CB91BA0FEF7DDFBEAE7F2
:1038900002A9204600F0D6F818B91DA0FEF7D4FB07
:1038A000E1E75822204902A8FCF714FD00B9DAE745
:1038B000582202A91C48FCF7B6FC9DED170A10EE31
:1038C000101A0846FCF746FE41EC180B8DED008BF4
:1038D00012AA02A915A0FEF7B7FBDDED170AB0EE9C
:1038E000600AFFF77DFE1698FFF7B8FE00BFBAE743
:1038F00010000020403804085B57454154484552A9
:103900005D2068747470206572726F720A00000026
:103910005B574541544845525D2070617273652084
:103920006661696C65640A00C40000205B5745410C
:10393000544845525D2025732C2025732C20252EBC
:1039400031660A0070B588B006460C4613A13046B1
:10395000FCF78DFC054615B9002008B070BDD5B147
:10396000A01D611D221DCDE90304CDE90121E01C4C
:1039700005AB06AA0DA100902846FCF7B9FC072864
:1039800001D00020E9E706A800F020FFE07105A8BB
:10399000FFF744FFA0700120DFE700002B434950F0
:1039A000534E545054494D453A0000002B43495062
:1039B000534E545054494D453A25337320253373A3
:1039C000202568687520256868753A256868753A05
:1039D000256868752025687500000000F8B5064662
:1039E0000C460FA13046FCF742FC05460DB90020FD
:1039F000F8BD002000908DB123466A460BA12846F1
:103A0000FCF776FC022801D00020F1E7009802289C
:103A100001D1012000E0002084F85C000120E7E7EC
:103A20002B435753544154453A0000002B435753FE
:103A3000544154453A25642C222536335B5E225D81
:103A4000220000002DE9F34F2DED028B85B00C46CE
:103A500040A10798FCF70BFC0490049828B90020BB
:103A600005B0BDEC028BBDE8FC8F3DA10798FCF7CB
:103A7000FEFB05460DB90020F2E73CA10798FCF7D4
:103A8000F6FB064646B122463AA13046FCF730FC2A
:103A9000012801D00020E3E73BA10798FCF7E7FBF2
:103AA00007464FB104F1200239A13846FCF720FC4B
:103AB000012801D00020D3E73AA10798FCF7D7FBF3
:103AC0008046B8F1000F01D10020C9E737A107985F
:103AD000FCF7CDFB8146B9F1000F09D004F140029B
:103AE00034A14846FCF704FC012801D00020B7E7C8
:103AF00035A10798FCF7BBFB8246BAF1000F09D04D
:103B000004F1500232A15046FCF7F2FB012801D02B
:103B10000020A5E731A10798FCF7A9FB8346BBF17C
:103B2000000F15D06A4631A15846FCF7E1FB012889
:103B300001D0002094E76846FEF7B2FAB0EE408A62
:103B4000F0EE608A51EC180BFCF717FD606500BFC2
:103B5000012085E722726573756C74732200000082
:103B6000226C6F636174696F6E220000226E616D5A
:103B700065220000226E616D65223A222533315B99
:103B80005E225D2200000000227061746822000045
:103B90002270617468223A222533315B5E225D22F5
:103BA00000000000226E6F7722000000227465780A
:103BB000742200002274657874223A222531355B24
:103BC0005E225D220000000022636F646522000017
:103BD00022636F6465223A22256422002274656D97
:103BE0007065726174757265220000002274656DE3
:103BF0007065726174757265223A222531355B5E9B
:103C0000225D22007CB506460C460DA13046FCF72D
:103C10002EFB05460DB900207CBD7DB104F1580096
:103C2000011F04F140032246CDE9001006A12846F9
:103C3000FCF75EFB042801D00020EDE70120EBE754
:103C40002B43574A41503A002B43574A41503A229E
:103C50002536335B5E225D222C222531375B5E22C6
:103C60005D222C25642C2564000000001FB504464D
:103C700000BF02A800F00FF8684600F00CF8082218
:103C8000694602A8FCF726FB0028F2D102982060C2
:103C9000039860601FBD1CB5044601A8FDF703FE34
:103CA0006846FDF7A9FF01A90020FDF735FE69462A
:103CB0000020FDF757FE9DF8070000F5FA60208010
:103CC0009DF80500A0709DF80600E0709DF80000CA
:103CD00020719DF8010060719DF80200A0719DF8AF
:103CE0000400E0711CBD0EB50120FDF7BFFC0120F2
:103CF000FDF786FD00BF4120FDF762FD0028FAD0E8
:103D00004FF48070FDF798FD6846FDF751FF684657
:103D1000FDF750FE0120FDF789FDFDF773FF01213E
:103D20000820FDF74DFF0EBD1CB5044600BF204620
:103D300000F00FF86846FFF7AEFF082221466846FC
:103D4000FCF7C8FA0028F2D1009820600198606062
:103D50001CBD1CB5044601A8FDF7A5FD6846FDF78E
:103D60004BFF2078A0F5FA60C0B28DF80700A0786C
:103D70008DF80500E0788DF8060020798DF80000B8
:103D800060798DF80100A0798DF80200E0798DF856
:103D9000040001A90020FDF73FFE69460020FDF761
:103DA0009FFE1CBD2DE9F04F85B080468946154623
:103DB0001E46DDE90FAB09EB0600401E83B208EB9F
:103DC0000500401E82B24946404600F075FA4FEAAF
:103DD0001A208DF810000AF0FF008DF811004FEA4C
:103DE0001B208DF80C000BF0FF008DF80D00E81D76
:103DF000C11700EB5171C1F3CF0102914FF4805113
:103E00003B48FDF7D9FB4FF480613948FDF7D7FBFC
:103E1000002754E002990E9807FB0100019000244E
:103E200049E02046E21704EB5272D310019AD25CAB
:103E30002146E31704EB5373DB10A4EBC303C3F178
:103E4000070C012303FA0CF31A4000920098C0B14A
:103E500000BF02212748FDF711FF0028F9D09DF887
:103E600010102448FDF713FF00BF02212148FDF781
:103E700005FF0028F9D09DF811101E48FDF707FF37
:103E800017E000BF02211B48FDF7F8FE0028F9D01B
:103E90009DF80C101748FDF7FAFE00BF02211548E7
:103EA000FDF7ECFE0028F9D09DF80D101148FDF744
:103EB000EEFE601C84B2AC42B3DB781C87B2B74222
:103EC000A8DB00BF02210B48FDF7D8FE0028F9D07F
:103ED00000BF80210748FDF7D1FE0128F9D04FF43B
:103EE00080510348FDF76BFB05B0BDE8F08F000083
:103EF00000040240003800402DE9F84F04460D460A
:103F000016461F46DDF828803B46324629462046A5
:103F1000FFF728F908B9BDE8F88F3B463246294635
:103F2000204600F0C9F94FF480512348FDF744FBC7
:103F30004FF480612048FDF742FB301B401C791B89
:103F4000491C00FB01F94FEA182A08F0FF00009015
:103F50004FF0000B00BF17E000BF02211748FDF72C
:103F60008DFE0028F9D051461448FDF790FE00BFA1
:103F700002211248FDF782FE0028F9D00F4800996F
:103F8000FDF785FE0BF1010BCB45E5D300BF022108
:103F90000A48FDF773FE0028F9D000BF80210748CA
:103FA000FDF76CFE0128F9D04FF480510248FDF76F
:103FB00006FB00BFAFE700000004024000380040ED
:103FC00000B587B005A8FDF7FCFA02208DF81800AF
:103FD00000208DF81A008DF81B0003208DF81900C1
:103FE0004FF4B0513448FDF7EAFA4FF4006132481B
:103FF000FDF7E2FA4FF40050059005A92E48FDF7B1
:1040000067FA4FF40040059005A92B48FDF760FAC8
:1040100005220D212848FDF7A3FA05220F21264885
:10402000FDF79EFA01208DF8180000208DF81A0087
:104030008DF81B0003208DF819004FF48050059077
:1040400005A91D48FDF744FA4FF40070059005A935
:104050001948FDF73DFA4FF48060059005A9164810
:10406000FDF736FA4FF40060059005A91248FDF7F8
:104070002FFA6846FDF72BFE0820ADF80C00002053
:10408000ADF80800ADF80400ADF80000ADF80E0082
:104090004FF48270ADF802004FF40070ADF80A00E2
:1040A00069460648FDF7F5FD01210448FDF7DAFDF4
:1040B00000F006F807B000BD0004024000380040E0
:1040C00000B599B000F0D8F800221146112000F098
:1040D00007FA7820FEF74AFD52A0006818900122E6
:1040E00018A93A2000F0FCF94FA0006817900122AF
:1040F00017A9C52000F0F4F900201690012216A996
:10410000362000F0EDF949A103C9CDE914010522DB
:1041100014A9B22000F0E4F946A00068139001222F
:1041200013A9B72000F0DCF943A000681290012227
:1041300012A9BB2000F0D4F940A000681190012220
:1041400011A9C02000F0CCF93DA000681090012218
:1041500010A9C22000F0C4F93AA000680F90012213
:104160000FA9C32000F0BCF937A000680E9001220F
:104170000EA9C42000F0B4F931A000680D9001220E
:104180000DA9C62000F0ACF930A000680C90022206
:104190000CA9D02000F0A4F92DA000680B900122FA
:1041A0000BA9E82000F09CF92AA000680A900322DD
:1041B0000AA9E92000F094F927A090E80E00C06851
:1041C000CDE90723069109900E2206A9E02000F010
:1041D00087F925A3D3E90021D3E90203CDE904033C
:1041E000CDE902210E2202A9E12000F079F9002296
:1041F0001146202000F074F97820FEF7B7FC002269
:104200001146292000F06CF9002040F23F13EF2204
:1042100001460090FFF770FE012000F041F819B050
:1042200000BD0000550000001A0000000505003325
:1042300033000000050000003F0000002C000000DB
:10424000010000000F00000020000000A4A10000F9
:104250000300000009090800D005090908142833E3
:104260003F07131428300000D00509090803243241
:10427000323B1413282F000010B54FF4007107488B
:10428000FDF79AF91420FEF793FC4FF400710348F0
:10429000FDF795F97820FEF769FC10BD0004024097
:1042A00010B5044622464FF400610248FDF792F92A
:1042B00010BD0000000402402DE9FC4107460C46F9
:1042C00015461E46380A8DF80400F8B28DF8050030
:1042D000280A8DF80600E8B28DF80700042201A92B
:1042E0002A2000F0FDF8200A8DF80000E0B28DF8D9
:1042F0000100300A8DF80200F0B28DF803000422AC
:1043000069462B2000F0ECF8002211462C2000F02A
:10431000E7F8BDE8FC812DE9FE4F8046894614464A
:104320009A460D9D0DB9BDE8FE8F2F88288800EBB9
:10433000D0714E1009EB0700401E83B208EB060057
:10434000401E82B249464046FEF70CFF00B9EAE73C
:10435000202C01DB7E2C00DDE5E729462046FEF718
:104360002FFB83460C98CDE900BA0290781E83B2E9
:10437000701E82B249464046FFF714FD00BFD2E7E7
:104380002DE9FF5F81468A4615469B460F9E05B183
:104390000EB9BDE8FF9F3788B6F800800AEB07002A
:1043A000401E83B209EB0800401E82B251464846C7
:1043B000FEF7D8FE00B9ECE7F468002003902878F7
:1043C0008DF80C0068788DF80D0006E003A92068D0
:1043D000FBF772FF00B903E0083420680028F5D12C
:1043E00000BF206800B9D4E70E986168CDE9001BD2
:1043F0000290781E83B2A8F1010082B2514648466D
:10440000FFF7D0FC00BFC4E72DE9F04706460F4692
:1044100014460CB9BDE8F087B4F80280B4F80090F7
:1044200007EB0800401E83B206EB0900401E82B273
:1044300039463046FEF796FE00B9EBE707EB080079
:10444000401E83B206EB0900401E82B23946304658
:10445000FFF732FF6088218848434FEA400A4FF453
:1044600080511D48FDF7A8F84FF480611A48FDF708
:10447000A6F8002519E000BF02211848FDF7FEFB51
:104480000028F9D0681C6268115C1448FDF7FFFB36
:1044900000BF02211148FDF7F1FB0028F9D0606848
:1044A000415D0E48FDF7F3FBAD1C5545E3D300BF5E
:1044B00002210A48FDF7E2FB0028F9D000BF802165
:1044C0000648FDF7DBFB0128F9D04FF48051024884
:1044D000FDF775F800BF9DE700040240003800407A
:1044E0002DE9F04105460E4617464FF48051264807
:1044F000FDF762F84FF480612348FDF75DF800BFD7
:1045000002212248FDF7BAFB0028F9D029461F48AE
:10451000FDF7BDFB00BF02211C48FDF7AFFB0028E3
:10452000F9D000BF80211948FDF7A8FB0128F9D078
:104530004FF480611448FDF742F8002400BF0CE0FE
:1045400000BF02211148FDF799FB0028F9D0315D29
:104550000E48FDF79CFB601CC4B2BC42F0DB00BF00
:1045600002210A48FDF78AFB0028F9D000BF80210C
:104570000648FDF783FB0128F9D04FF4805102482B
:10458000FDF71DF8BDE8F08100040240003800404E
:104590002DE9FF470746894614469A46DDE90C8512
:1045A00033E02078FEF73CFE08B1022000E0012055
:1045B0000646002E01DC641C27E0012E0FD1CDE958
:1045C00000852278534649463846FFF7A4FE641C0E
:1045D000288800EBD07107EB61018FB214E0002056
:1045E000029003903246214602A8FBF752FE534642
:1045F00002AA49463846CDE90085FFF7C1FE34449A
:104600002888384487B200BF00BF20780028C8D16E
:10461000BDE8FF8700B589B02F48006808B109B030
:1046200000BD2E482C49086000200790089007A87C
:10463000FEF758FC38B92AA0FDF706FD41F2883094
:1046400025490860EBE7BDF81C00B0F5FA6F07DA02
:1046500029A0FDF7F9FC41F288301F490860DEE728
:104660009DF823009DF822109DF821209DF8203010
:10467000CDE90032CDE902109DF81F309DF81E20D3
:10468000BDF81C1024A0FDF7DFFC0020059006906B
:10469000BDF81C00ADF814009DF81E008DF8160042
:1046A0009DF81F008DF817009DF820008DF8180068
:1046B0009DF821008DF819009DF822008DF81A0050
:1046C0009DF823008DF81B0005A8FFF72DFB0A209D
:1046D0001F49086000BFA2E700000020005C26051B
:1046E0005B534E54505D206765742074696D65207E
:1046F0006661696C65640A005B534E54505D2069C5
:104700006E76616C6964206461746520666F726D99
:104710006174650A000000005B534E54505D2073C5
:10472000796E632074696D653A20253034752D25C6
:104730003032752D2530327520253032753A2530CE
:1047400032753A2530327520282564290A00000088
:10475000080000201CB51448006800B11CBD4FF4CF
:104760007A70114908600020009001906846FFF7B8
:104770007DFABDF8000040F2E471884200DAEDE70E
:1047800008220A496846FBF7A5FD00B9E6E7684636
:10479000FEF74AFE6846FEF7BDFF04480099016037
:1047A0000199416000BFD9E70800002014000020F3
:1047B00010B502E00448FDF731FC20210248FDF766
:1047C00090FB0128F6D010BD0010014030B587B035
:1047D00005461C220A496846FBF725FD00240BE02C
:1047E0005DF824102846FBF767FD18B9601CC0B2BD
:1047F00007B030BD601CC4B2072CF1DB0020F7E726
:10480000344D00081CB50024002040F23F13EF2275
:1048100001460090FFF770FB134A0A211E20FFF7A4
:10482000F3FD124800214EF6124311A2CDE900100B
:10483000CD212820FFF7ACFE0C48002145F23F5364
:104840000EA2CDE90010E9213820FFF7A1FE0E48A5
:1048500000214FF6FF730DA2CDE9001040F21D11AB
:104860003C20FFF795FE1CBD64DC01081899000888
:10487000C3B7BBA8C7B6C8EBCABD0000CCECC6F82E
:10488000CAB1D6D300000000F07B00086C6F6164F1
:10489000696E672E2E2E000010B515A0FDF7D4FB13
:1048A000FEF7F4FA18B916A0FDF7CEFB17E019A031
:1048B000FDF7CAFBFEF71CFC18B91AA0FDF7C4FBF4
:1048C0000DE01DA0FDF7C0FBFEF72AFB18B91EA0E6
:1048D000FDF7BAFB03E021A0FDF7B6FB10BD23A056
:1048E000FEF70CFA02E026A0FDF7AEFBFBE70000A6
:1048F0005B5359535D20737461727475700A0000C4
:104900005B41545D20696E6974206661696C656401
:104910000A0000005B41545D20696E697465640A99
:10492000000000005B574946495D20696E697420AC
:104930006661696C65640A005B574946495D206998
:104940006E697465640A00005B534E54505D2069C3
:104950006E6974206661696C65640A005B534E542D
:10496000505D20696E697465640A00005B574946B2
:10497000495D20696E6974206661696C6564000038
:104980004154204552524F520000000000B599B0EA
:1049900001A8FEF71DFA18B19DF8600019B000BD1E
:1049A0000020FBE77CB5002521480068FBF77DFC73
:1049B000204909884843C0F34704F02C05DAC4F1C4
:1049C000F00000EBD071C1F34F050026002040F24B
:1049D0003F13EF2201460090FFF78EFA164A0F218F
:1049E0001E20FFF711FD1548002140F2FD7314A2AF
:1049F000CDE90010BF215820FFF7CAFD0D48002166
:104A00004FF6FF73CDE900100948E72102682846F8
:104A1000FFF7BEFD0C48002149F23F630BA2CDE930
:104A2000001040F207115420FFF7B2FD7CBD0000DA
:104A30002400002018690008148B03081899000846
:104A40005769466900000000F07B0008C1ACBDD387
:104A5000D6D0000000B599B02248006808B119B05E
:104A600000BD41F288301F490860602101A8FBF7B2
:104A7000F3FB01A8FEF7ACF918B91BA0FDF7E4FAA7
:104A8000EDE760221F4901A8FBF724FC00B9E6E727
:104A90001C4890F85C009DF86010884200D1DEE769
:104AA0009DF8600078B101A917A0FDF7CDFA17981D
:104AB000009011AA01A91AA0169BFDF7C5FA01A83A
:104AC000FEF776FE06E00F4922A0FDF7BDFA29A009
:104AD000FEF76EFE602201A90A48FBF7A4FB00BFA7
:104AE000BDE70000040000205B41545D207769664B
:104AF0006920696E666F20676574206661696C6500
:104B0000640A0000640000205B574946495D206349
:104B10006F6E6E656374656420746F2025730A0080
:104B20005B574946495D20535349443A2025732C2D
:104B30002042535349443A2025732C204368616E28
:104B40006E656C3A2025642C20525353493A202537
:104B5000640A00005B574946495D20646973636FCE
:104B60006E6E65637465642066726F6D2025730ACE
:104B70000000000077696669206C6F7374000000A4
:104B800010B59AB0002220A124A0FEF7EBF825A0D2
:104B9000FDF75AFA00242BE002A8FEF719F978B1C4
:104BA000FFF7F4FE60B124A0FDF74EFA18980090CC
:104BB00012AA02A927A0179BFDF746FA1AB010BD4A
:104BC00040F6B830FDF7D2FF002C10DD032094FB37
:104BD000F0F100FB114050B92BA0FDF735FA37A0DA
:104BE000FDF732FA002208A10CA0FEF7BBF8641C06
:104BF00042F210708442CFDB37A0FDF725FA3BA0CC
:104C0000FEF77CF800BFD9E777616E67736875615E
:104C10006E67657231323334350000007669766F25
:104C2000000000005B574946495D20636F6E6E656A
:104C30006374696E670A00005B41545D20776966A2
:104C40006920696E666F206765742073756363659C
:104C500073730A005B574946495D20535349443AF0
:104C60002025732C2042535349443A2025732C208D
:104C70004368616E6E656C3A2025642C2052535354
:104C8000493A2025640A00005B574946495D205394
:104C900074617465206973203420284661696C65ED
:104CA00064292C205265747279696E672041542BF7
:104CB00043574A41502E2E2E0A0000005B574946AA
:104CC000495D20616761696E20636F6E6E65637414
:104CD000696E670A000000005749464920636F6EFD
:104CE0006E656374206572726F7200005B5749468F
:104CF000495D20636F6E6E656374206572726F72BA
:104D000000000000C4380408A8380408D838040893
:104D1000DC380408F0380408CC380408C03804082B
:104D2000B8380408D4380408E4380408EC38040817
:104D3000AC380408C8380408B4380408B03804088B
:104D4000E8380408BC380408E0380408D0380408FF
:104D50000000000000000000000000000000000053
:104D600000000018181818101000001800000000AB
:104D700000000024242424000000000000000000A3
:104D8000000000242424FF2424FF24240000000029
:104D900000001034525060181612523410000000F7
:104DA00000000070525454202E2A4A0E00000000C9
:104DB00000000038444020504A4A447B0000000074
:104DC00000000008080808000000000000000000C3
:104DD00000000C18102020202020201008040000C3
:104DE000000030180804040404040808102000001F
:104DF000000000000010523C3C5210000000000077
:104E000000000000001010107E10100000000000D4
:104E10000000000000000000000010180810200032
:104E2000000000000000007E000000000000000004
:104E3000000000000000000000001018000000004A
:104E40000000020404080808101020202040000080
:104E50000000001C2442465A7242423C00000000FE
:104E600000000018284808080808087E0000000014
:104E70000000003C420202040810207E00000000F6
:104E8000000000780404043C0202027C00000000E0
:104E9000000000040C141424447E040400000000EC
:104EA0000000003E4040403C0202027C0000000046
:104EB000000000081020407C4242423C00000000FC
:104EC0000000007E02040408080810100000000022
:104ED0000000003C424224186642423C00000000B0
:104EE0000000003C424242661A0408100000000024
:104EF0000000000000001800000010180000000072
:104F00000000000000001800000010180810200029
:104F10000000000000020C306018060000000000D5
:104F20000000000000007E00007E00000000000085
:104F3000000000000040300C061860000000000077
:104F40000000001C220204080800001800000000F5
:104F5000000000007C82027A4A48486E000000008F
:104F60000000001818182424243C424200000000CD
:104F700000000038464244784642427C000000006F
:104F80000000001C224040404040201E0000000065
:104F9000000000384442424242424478000000008F
:104FA0000000003E4040407C4040403E0000000089
:104FB0000000003E4040407E404040400000000075
:104FC0000000003C2442404C4242423C00000000B1
:104FD000000000424242427E424242420000000043
:104FE0000000003C101010101010103C00000000D9
:104FF0000000003C040404040404443C00000000DD
:105000000000004244485070484C444200000000F8
:1050100000000020202020202020203E0000000052
:105020000000006666665A5A5A424242000000007A
:1050300000000062625252524A4A46460000000096
:105040000000003C244242424242423C0000000038
:105050000000003C4242427C4040404000000000D2
:105060000000003C244242424242423C000E00000A
:105070000000003C4242427C4844444200000000A0
:105080000000003C464020180602423C00000000A0
:105090000000007E10101010101010100000000012
:1050A00000000042424242424242423C00000000B4
:1050B0000000004242442424241818180000000074
:1050C00000000042425A5A5A5A6A66240000000000
:1050D0000000004224241818182424420000000074
:1050E0000000004242242418181010100000000094
:1050F0000000007E040408081020207E000000004C
:1051000000003C202020202020202020203C0000E7
:1051100000004020201010100808040404020000C1
:1051200000003C040404040404040404043C0000DF
:1051300000000000181824660000000000000000B5
:10514000000000000000000000000000007E0000E1
:1051500000002010080C000000000000000000000B
:1051600000000000001A244444444C3A00000000AF
:1051700000000040405864424242625C000000006F
:1051800000000000001C22404040203E00000000C3
:1051900000000002021A26424242463A0000000085
:1051A00000000000001824427E40403E0000000045
:1051B0000000000E10107E101010101000000000F3
:1051C00000000000001A26424242261A026418001B
:1051D0000000004040586442424242420000000049
:1051E00000000018000038080808087E00000000D1
:1051F0000000000C00003C040404040404483000D7
:1052000000000040404244487868444200000000EA
:1052100000000070101010101010100E00000000A0
:105220000000000000745A52525252520000000016
:105230000000000000586442424242420000000068
:1052400000000000001824424242423C00000000DE
:1052500000000000005864424242645C404000008C
:1052600000000000001A26424242463A02020000B4
:1052700000000000002C322220202020000000002E
:1052800000000000001826403806423C00000000E4
:105290000000000010107E101010101E0000000012
:1052A00000000000004242424242463A0000000034
:1052B00000000000004242242428181800000000CA
:1052C000000000000042425A5A5A662400000000C2
:1052D00000000000004224181818244200000000BA
:1052E000000000000042422424181808107000003A
:1052F00000000000003C46080810207E000000006E
:1053000000000E101010107010101010100E000081
:105310000000080808080808080808080800000035
:10532000000070080808080E080808080870000047
:1053300000000000000000724E00000000000000AD
:1053400010000000504D00080000000000000000A8
:105350000000000000000000000FFF000E07000F1B
:10536000FF000E07000FFF000400000FFF001FFFEB
:105370000018600007FF000060001FFF801FFF8013
:10538000000000000000000000000000000000001D
:1053900000000880000D9F803FDF801FF9800F9F75
:1053A000800F9F800D99800F99800D9F803FD9803D
:1053B0003FD9800DB9801DF38018B3800000000034
:1053C00000000000000000000000000000000000DD
:1053D00000000000000000000000000000000000CD
:1053E0003FFFC03FFFC000000000000000000000C1
:1053F00000000000000000000000000000000000AD
:10540000000000000000000000000000000000009C
:105410000FFF000FFF0007FE00000000000000006B
:1054200000000000000000000000001FFF801FFFC0
:1054300080000000000000000000000000000000EC
:105440000000000000000000000000000FFF000F3F
:10545000FF0000000000000003FC0007FE0003FC4A
:10546000000000000000001FFF801FFF801FFF8062
:10547000000000000000000000000000000000002C
:1054800000000000000FFF001FFF80199380199992
:10549000801999801999801B99801B1F801B0F8090
:1054A0001801801FFF801FFF80180180000000008E
:1054B00000000000000000000000000000000000EC
:1054C000000000001FFF800FFF0000C00001C000AF
:1054D0000FFE0007FE00018E00018E00018E00030A
:1054E0008C001FFFC01FFF800000000000000000B4
:1054F0000000000000000000000000400000E0008C
:105500000070000060003FFFC01FFFC000000001EE
:105510000800039C00070E000F07001E07801C03F5
:1055200080180100000000000000000000000000E2
:1055300000000000000000000001C00001C00001E8
:10554000C00001CFC00FFFC03FFC001DC00001C064
:105550000001C18001C18001C18001FF8000FF0006
:10556000000000000000000000000000000000003B
:1055700000000000000FFF000FFF000E07000E07E5
:10558000000E07000FFF000FFF000E07000E0700C0
:105590000E07000FFF000FFF000C030000000000CB
:1055A000000000000000000000000000000000609B
:1055B000001FFF801FFF8018018007FE0007FF000B
:1055C000078E0007FF000F420007FF000FFF0000DB
:1055D00060001FFF801FFF8000000000000000002F
:1055E00000000000000000000000006000006000FB
:1055F0000060001FFF801FFF801861801861801805
:10560000F18019FD801BDD801B8D8018018018073B
:1056100080180F8000000000000000000000000063
:105620000000000000000000003EFFC03FFFC00C73
:105630001C000C1C001E3E003E3F000C7F800CFD39
:10564000C00CDC800F1C003E1C00101C00001C0065
:10565000000000000000000000000000000000004A
:105660000000080C000CFF800C7F000C33003EFF94
:10567000801E00000CFF800CE3800CFF800EFF807A
:105680001F7F003C760000E6C001C7C0000000009C
:1056900000000000000000000000000000000110F9
:1056A000000398000398000399801F9F801F9F00AC
:1056B000039C000398000398000798003F98C03FA0
:1056C00098C0039FC0039F800000000000000000FE
:1056D000000000000000000000000060000060000A
:1056E0001FFF801FFF8007FE000FFF000E07000F47
:1056F000FF000FFF000060000462000E67001CE363
:105700008019E1000000000000000000000000001F
:1057100000000000000000400000E00000E0000089
:10572000E00000FF0000FF8000FF0000E00000E05C
:105730000000E00000E0001FFF803FFFC01FFF806F
:105740000000000000000000000000000000000059
:1057500000000040000EE0000EFF8001FFC001FFCE
:105760008018FF801CE98001FFC003FFC00EDB80B2
:105770000CFF801CFFC01C0300180F00000000007D
:105780000000000000000000000000000000000019
:10579000001FFF803FFFC00198000FFF001FFF8028
:1057A0001D99801D99801F9F801F1F801C01801CD8
:1057B00001801FFF801FFF8000000000000000002C
:1057C0000000000000000000000000600000E00099
:1057D0001FFF801FFF8018C18001C0001FFF801FB6
:1057E000FF80078C0007DC0003F80001FE000FDFDC
:1057F000801F038000000000000000000000000087
:10580000000000000000000C001F0C001F7F801B28
:105810007F801E4D001E6D801F6F001B7F801BFF51
:10582000C01F1E001F3E00187F0018F38018E18083
:105830000000000000000000000000000000000068
:1058400000000000001FFF803FFFC00198000FFF15
:10585000001FFF801D99801D99801F9F801F1F8042
:105860001C01801C01801FFF801FFF8000000000C2
:1058700000000000000000000000000000000060C8
:10588000000060000060000861001C63801C6380F1
:105890001C63801C63801C63801C63801C63801FEE
:1058A000FF801FFF80000380000000000000000058
:1058B000000000000000000000000000001FFF804A
:1058C0003FFFC00198000FFF001FFF801D99801D42
:1058D00099801F9F801F1F801C01801C01801FFF5B
:1058E000801FFF800000000000000000000000009A
:1058F00000000000000000000007FE0007FF000697
:10590000070007FF0007FF000000000000000FFF76
:10591000000FFF000C03000C03000FFF000FFF003F
:105920000000000000000000000000000000000077
:1059300000000800000EFE00187F0019B7800177F4
:10594000C00C66C01CEE0008CC000060001FFF8089
:1059500001F80007FE001E67801C61800000000047
:105960000000000000000000000000000000000037
:105970000000000000000000000000000000000027
:105980000000000000000000000000000000000017
:1059900000000000000000000C000C000C000C00D7
:1059A0000C000C000C00000000000C000C000000BB
:1059B00000000000000000000000000000000000E7
:1059C000330033003300330000000000000000000B
:1059D00000000000000000000000000000000000C7
:1059E000000000000000000011001B001300FFC0B9
:1059F000330033003300FFC03200320026000000C5
:105A000000000000000000000000000008000C0082
:105A10002D006D806D806C0038001F0003800D80AC
:105A20004D806D802D000C000C0000000000000077
:105A30000000000000000000788058C0CD80CB003E
:105A40007A002000178034C06CC06480C7800000DA
:105A50000000000000000000000000000000000046
:105A60003C00360063003000380058806C8067804E
:105A7000618067803EC00000000000000000000060
:105A800000000000000000000C000C000C000C00E6
:105A90000000000000000000000000000000000006
:105AA00000000000000000000000000002000700ED
:105AB0000C001800180010003000300030003000DA
:105AC000180018000C000E00070002000000000083
:105AD00000000000300018000C000E00060002005C
